{
  "contractName": "Doctor",
  "abi": [
    {
      "constant": true,
      "inputs": [],
      "name": "getDoctorInfo",
      "outputs": [
        {
          "internalType": "string",
          "name": "",
          "type": "string"
        },
        {
          "internalType": "address[]",
          "name": "",
          "type": "address[]"
        }
      ],
      "payable": false,
      "stateMutability": "view",
      "type": "function"
    },
    {
      "constant": false,
      "inputs": [
        {
          "internalType": "string",
          "name": "_name",
          "type": "string"
        }
      ],
      "name": "signupDoctor",
      "outputs": [],
      "payable": false,
      "stateMutability": "nonpayable",
      "type": "function"
    }
  ],
  "bytecode": "0x608060405234801561001057600080fd5b5061057d806100206000396000f3fe608060405234801561001057600080fd5b50600436106100365760003560e01c80636459d52f1461003b578063b380f5c6146100e3575b600080fd5b6100e16004803603602081101561005157600080fd5b81019060208101813564010000000081111561006c57600080fd5b82018360208201111561007e57600080fd5b803590602001918460018302840111640100000000831117156100a057600080fd5b91908080601f0160208091040260200160405190810160405280939291908181526020018383808284376000920191909152509295506101a4945050505050565b005b6100eb6102f3565b604051808060200180602001838103835285818151815260200191508051906020019080838360005b8381101561012c578181015183820152602001610114565b50505050905090810190601f1680156101595780820380516001836020036101000a031916815260200191505b508381038252845181528451602091820191808701910280838360005b8381101561018e578181015183820152602001610176565b5050505090500194505050505060405180910390f35b3360009081526020818152604091829020915183517fc5d2460186f7233c927e7db2dcc703c0e500b653ca82273b7bfad8045d85a47092859281019182918401908083835b602083106102085780518252601f1990920191602091820191016101e9565b6001836020036101000a03801982511681845116808217855250505050505090500191505060405160208183030381529060405280519060200120141561024e57600080fd5b60018101546001600160a01b03161561026657600080fd5b604080516060810182528381523360208083018290528351600080825281830186528486019190915291825281815292902081518051929391926102ad9284920190610428565b506020828101516001830180546001600160a01b0319166001600160a01b03909216919091179055604083015180516102ec92600285019201906104a6565b5050505050565b3360008181526020819052604090206001810154606092839290916001600160a01b031661032057600080fd5b336000908152602081815260409182902080548351600260018316156101000260001901909216829004601f81018590048502820185019095528481529193849391840192918491908301828280156103ba5780601f1061038f576101008083540402835291602001916103ba565b820191906000526020600020905b81548152906001019060200180831161039d57829003601f168201915b505050505091508080548060200260200160405190810160405280929190818152602001828054801561041657602002820191906000526020600020905b81546001600160a01b031681526001909101906020018083116103f8575b50505050509050945094505050509091565b828054600181600116156101000203166002900490600052602060002090601f016020900481019282601f1061046957805160ff1916838001178555610496565b82800160010185558215610496579182015b8281111561049657825182559160200191906001019061047b565b506104a2929150610507565b5090565b8280548282559060005260206000209081019282156104fb579160200282015b828111156104fb57825182546001600160a01b0319166001600160a01b039091161782556020909201916001909101906104c6565b506104a2929150610524565b61052191905b808211156104a2576000815560010161050d565b90565b61052191905b808211156104a25780546001600160a01b031916815560010161052a56fea265627a7a723158202b0cfe050226ed1cb7d969867c9677b7841e4b414a61c51e52243d6b69393b5b64736f6c63430005100032",
  "source": "// SPDX-License-Identifier: MIT\r\npragma solidity >=0.4.22 <0.9.0;\r\n\r\ncontract Doctor {\r\n    //hash key value pair to store data on blockchain (acts as a database)\r\n    mapping (address => doctor) internal doctors;\r\n    mapping (address => mapping(address => uint)) internal doctorToPatient;\r\n    \r\n    struct doctor {\r\n        string name;\r\n        address id;\r\n        //list of patients that have granted this doctor access to their records\r\n        address[] patient_list;\r\n    }\r\n    \r\n    modifier checkDoctor(address id) {\r\n        doctor storage d = doctors[id];\r\n        //check if doctor exist\r\n        require(d.id > address(0x0));\r\n        _;\r\n    }\r\n    \r\n    //log in with address\r\n    function getDoctorInfo() public view checkDoctor(msg.sender) returns(string memory, address[] memory){\r\n        doctor storage  d = doctors[msg.sender];\r\n        return (d.name, d.patient_list);\r\n    }\r\n    \r\n    //sign up with address\r\n    function signupDoctor(string memory _name) public {\r\n        doctor storage d = doctors[msg.sender];\r\n        //sign that this account belongs to a doctor\r\n        require(keccak256(abi.encodePacked(_name)) != keccak256(\"\"));\r\n        //check that the addres of the user is not null\r\n        require(!(d.id > address(0x0)));\r\n        //add new doctor to mapping\r\n        doctors[msg.sender] = doctor({name:_name, id:msg.sender, patient_list:new address[](0)});\r\n    }    \r\n    \r\n}",
  "sourcePath": "C:\\Users\\Heidi\\Desktop\\Ethereum_HealthCare_Final\\contracts\\Doctor.sol",
  "compiler": {
    "name": "solc",
    "version": "0.5.16+commit.9c3226ce.Emscripten.clang"
  },
  "schemaVersion": "3.4.7",
  "updatedAt": "2022-06-10T20:20:59.229Z",
  "networkType": "ethereum",
  "devdoc": {
    "methods": {}
  },
  "userdoc": {
    "methods": {}
  }
}