{
  "contractName": "HealthCare",
  "abi": [
    {
      "inputs": [],
      "payable": false,
      "stateMutability": "nonpayable",
      "type": "constructor"
    },
    {
      "constant": true,
      "inputs": [],
      "name": "getDoctorInfo",
      "outputs": [
        {
          "internalType": "string",
          "name": "",
          "type": "string"
        },
        {
          "internalType": "address[]",
          "name": "",
          "type": "address[]"
        }
      ],
      "payable": false,
      "stateMutability": "view",
      "type": "function"
    },
    {
      "constant": true,
      "inputs": [],
      "name": "getPatientInfo",
      "outputs": [
        {
          "internalType": "string",
          "name": "",
          "type": "string"
        },
        {
          "internalType": "uint8",
          "name": "",
          "type": "uint8"
        },
        {
          "internalType": "string",
          "name": "",
          "type": "string"
        },
        {
          "internalType": "address[]",
          "name": "",
          "type": "address[]"
        },
        {
          "internalType": "address[]",
          "name": "",
          "type": "address[]"
        }
      ],
      "payable": false,
      "stateMutability": "view",
      "type": "function"
    },
    {
      "constant": false,
      "inputs": [
        {
          "internalType": "string",
          "name": "_name",
          "type": "string"
        }
      ],
      "name": "signupDoctor",
      "outputs": [],
      "payable": false,
      "stateMutability": "nonpayable",
      "type": "function"
    },
    {
      "constant": false,
      "inputs": [
        {
          "internalType": "string",
          "name": "_name",
          "type": "string"
        },
        {
          "internalType": "uint8",
          "name": "_age",
          "type": "uint8"
        }
      ],
      "name": "signupPatient",
      "outputs": [],
      "payable": false,
      "stateMutability": "nonpayable",
      "type": "function"
    },
    {
      "constant": true,
      "inputs": [
        {
          "internalType": "address",
          "name": "_user",
          "type": "address"
        }
      ],
      "name": "checkProfile",
      "outputs": [
        {
          "internalType": "string",
          "name": "",
          "type": "string"
        },
        {
          "internalType": "string",
          "name": "",
          "type": "string"
        }
      ],
      "payable": false,
      "stateMutability": "view",
      "type": "function"
    },
    {
      "constant": false,
      "inputs": [],
      "name": "grantAccessToDoctor",
      "outputs": [],
      "payable": false,
      "stateMutability": "nonpayable",
      "type": "function"
    },
    {
      "constant": false,
      "inputs": [
        {
          "internalType": "string",
          "name": "_prescription",
          "type": "string"
        }
      ],
      "name": "addFile",
      "outputs": [],
      "payable": false,
      "stateMutability": "nonpayable",
      "type": "function"
    },
    {
      "constant": true,
      "inputs": [
        {
          "internalType": "address",
          "name": "pat",
          "type": "address"
        }
      ],
      "name": "getPatientInfoForDoctor",
      "outputs": [
        {
          "internalType": "string",
          "name": "",
          "type": "string"
        },
        {
          "internalType": "address",
          "name": "",
          "type": "address"
        },
        {
          "internalType": "string",
          "name": "",
          "type": "string"
        }
      ],
      "payable": false,
      "stateMutability": "view",
      "type": "function"
    },
    {
      "constant": true,
      "inputs": [],
      "name": "getFileInfoPatient",
      "outputs": [
        {
          "internalType": "string",
          "name": "",
          "type": "string"
        }
      ],
      "payable": false,
      "stateMutability": "view",
      "type": "function"
    },
    {
      "constant": false,
      "inputs": [
        {
          "internalType": "address",
          "name": "pat",
          "type": "address"
        }
      ],
      "name": "requestAccess",
      "outputs": [],
      "payable": false,
      "stateMutability": "nonpayable",
      "type": "function"
    }
  ],
  "bytecode": "0x608060405234801561001057600080fd5b50600480546001600160a01b031916331790556117c9806100326000396000f3fe608060405234801561001057600080fd5b506004361061009e5760003560e01c8063b380f5c611610066578063b380f5c614610499578063c3ecb9991461055a578063ceac433614610562578063eb9b9b64146105df578063fe59cc1a146106855761009e565b806301d99258146100a3578063022cb271146101a7578063326df664146101cf5780636459d52f146103485780637120203a146103ee575b600080fd5b6100c9600480360360208110156100b957600080fd5b50356001600160a01b03166107a2565b604051808060200180602001838103835285818151815260200191508051906020019080838360005b8381101561010a5781810151838201526020016100f2565b50505050905090810190601f1680156101375780820380516001836020036101000a031916815260200191505b50838103825284518152845160209182019186019080838360005b8381101561016a578181015183820152602001610152565b50505050905090810190601f1680156101975780820380516001836020036101000a031916815260200191505b5094505050505060405180910390f35b6101cd600480360360208110156101bd57600080fd5b50356001600160a01b03166109a7565b005b6101d7610a3f565b60405180806020018660ff1660ff16815260200180602001806020018060200185810385528a818151815260200191508051906020019080838360005b8381101561022c578181015183820152602001610214565b50505050905090810190601f1680156102595780820380516001836020036101000a031916815260200191505b5085810384528851815288516020918201918a019080838360005b8381101561028c578181015183820152602001610274565b50505050905090810190601f1680156102b95780820380516001836020036101000a031916815260200191505b508581038352875181528751602091820191808a01910280838360005b838110156102ee5781810151838201526020016102d6565b50505050905001858103825286818151815260200191508051906020019060200280838360005b8381101561032d578181015183820152602001610315565b50505050905001995050505050505050505060405180910390f35b6101cd6004803603602081101561035e57600080fd5b81019060208101813564010000000081111561037957600080fd5b82018360208201111561038b57600080fd5b803590602001918460018302840111640100000000831117156103ad57600080fd5b91908080601f016020809104026020016040519081016040528093929190818152602001838380828437600092019190915250929550610c87945050505050565b6101cd6004803603604081101561040457600080fd5b81019060208101813564010000000081111561041f57600080fd5b82018360208201111561043157600080fd5b8035906020019184600183028401116401000000008311171561045357600080fd5b91908080601f0160208091040260200160405190810160405280939291908181526020018383808284376000920191909152509295505050903560ff169150610dd69050565b6104a1610f2b565b604051808060200180602001838103835285818151815260200191508051906020019080838360005b838110156104e25781810151838201526020016104ca565b50505050905090810190601f16801561050f5780820380516001836020036101000a031916815260200191505b508381038252845181528451602091820191808701910280838360005b8381101561054457818101518382015260200161052c565b5050505090500194505050505060405180910390f35b6101cd611060565b61056a6111a7565b6040805160208082528351818301528351919283929083019185019080838360005b838110156105a457818101518382015260200161058c565b50505050905090810190601f1680156105d15780820380516001836020036101000a031916815260200191505b509250505060405180910390f35b6101cd600480360360208110156105f557600080fd5b81019060208101813564010000000081111561061057600080fd5b82018360208201111561062257600080fd5b8035906020019184600183028401116401000000008311171561064457600080fd5b91908080601f01602080910402602001604051908101604052809392919081815260200183838082843760009201919091525092955061128f945050505050565b6106ab6004803603602081101561069b57600080fd5b50356001600160a01b0316611474565b6040518080602001846001600160a01b03166001600160a01b0316815260200180602001838103835286818151815260200191508051906020019080838360005b838110156107045781810151838201526020016106ec565b50505050905090810190601f1680156107315780820380516001836020036101000a031916815260200191505b50838103825284518152845160209182019186019080838360005b8381101561076457818101518382015260200161074c565b50505050905090810190601f1680156107915780820380516001836020036101000a031916815260200191505b509550505050505060405180910390f35b60045460609081906001600160a01b031633146107be57600080fd5b6001600160a01b03808416600090815260026020908152604080832091839052909120600182015491929091610100900416156108af57815460408051602060026001851615610100026000190190941693909304601f810184900484028201840190925281815284929091839183018282801561087d5780601f106108525761010080835404028352916020019161087d565b820191906000526020600020905b81548152906001019060200180831161086057829003601f168201915b50505050509050604051806040016040528060078152602001661c185d1a595b9d60ca1b8152509350935050506109a2565b60018101546001600160a01b03161561097b57805460408051602060026001851615610100026000190190941693909304601f810184900484028201840190925281815283929091839183018282801561094a5780601f1061091f5761010080835404028352916020019161094a565b820191906000526020600020905b81548152906001019060200180831161092d57829003601f168201915b50505050509050604051806040016040528060068152602001653237b1ba37b960d11b8152509350935050506109a2565b60405180602001604052806000815250604051806020016040528060008152509350935050505b915091565b6001600160a01b03808216600090815260026020526040902060018101548392610100909104166109d757600080fd5b33600081815260208190526040902060018101546001600160a01b03166109fd57600080fd5b5050506001600160a01b0390911660009081526002602090815260408220600401805460018101825590835291200180546001600160a01b0319163317905550565b3360008181526002602052604081206001810154606093849283928392919061010090046001600160a01b0316610a7557600080fd5b336000908152600260208181526040928390206001808201548254865161010093821615939093026000190116859004601f81018590048502830185019096528582529194859460ff9093169392850192600386019260048701929091879190830182828015610b265780601f10610afb57610100808354040283529160200191610b26565b820191906000526020600020905b815481529060010190602001808311610b0957829003601f168201915b5050865460408051602060026001851615610100026000190190941693909304601f8101849004840282018401909252818152959a5088945092508401905082828015610bb45780601f10610b8957610100808354040283529160200191610bb4565b820191906000526020600020905b815481529060010190602001808311610b9757829003601f168201915b5050505050925081805480602002602001604051908101604052809291908181526020018280548015610c1057602002820191906000526020600020905b81546001600160a01b03168152600190910190602001808311610bf2575b5050505050915080805480602002602001604051908101604052809291908181526020018280548015610c6c57602002820191906000526020600020905b81546001600160a01b03168152600190910190602001808311610c4e575b50505050509050975097509750975097505050509091929394565b3360009081526020818152604091829020915183517fc5d2460186f7233c927e7db2dcc703c0e500b653ca82273b7bfad8045d85a47092859281019182918401908083835b60208310610ceb5780518252601f199092019160209182019101610ccc565b6001836020036101000a038019825116818451168082178552505050505050905001915050604051602081830303815290604052805190602001201415610d3157600080fd5b60018101546001600160a01b031615610d4957600080fd5b60408051606081018252838152336020808301829052835160008082528183018652848601919091529182528181529290208151805192939192610d90928492019061164b565b506020828101516001830180546001600160a01b0319166001600160a01b0390921691909117905560408301518051610dcf92600285019201906116c9565b5050505050565b336000908152600260205260409020600181015461010090046001600160a01b031615610e0257600080fd5b60008260ff16118015610e18575060648260ff16105b610e2157600080fd5b60408051602080820183526000808352835160c08101855287815260ff87168184015233818601819052606082018590528551838152808501875260808301528551838152808501875260a0830152825260028352939020835180519394939192610e919284929091019061164b565b5060208281015160018301805460408601516001600160a01b031661010002610100600160a81b031960ff90941660ff19909216919091179290921691909117905560608301518051610eea926002850192019061164b565b5060808201518051610f069160038401916020909101906116c9565b5060a08201518051610f229160048401916020909101906116c9565b50505050505050565b3360008181526020819052604090206001810154606092839290916001600160a01b0316610f5857600080fd5b336000908152602081815260409182902080548351600260018316156101000260001901909216829004601f8101859004850282018501909552848152919384939184019291849190830182828015610ff25780601f10610fc757610100808354040283529160200191610ff2565b820191906000526020600020905b815481529060010190602001808311610fd557829003601f168201915b505050505091508080548060200260200160405190810160405280929190818152602001828054801561104e57602002820191906000526020600020905b81546001600160a01b03168152600190910190602001808311611030575b50505050509050945094505050509091565b336000818152600260205260409020600181015461010090046001600160a01b031661108b57600080fd5b33600090815260026020526040812060048101805491929160001981019081106110b157fe5b60009182526020808320909101546001600160a01b031680835282825260408084203385526003845281852083865290935290922054919250906001116110f757600080fd5b6003808401805460018181018084556000938452602080852090930180546001600160a01b0389166001600160a01b031991821681179092553380875296855260408087209287529185529085208290556002870180549384018155855292909320018054909116909217909155600484018054600019810190811061117957fe5b600091825260209091200180546001600160a01b031916905560048401805490610f2290600019830161172a565b6004546060906001600160a01b031633146111c157600080fd5b336000818152600260205260409020600181015461010090046001600160a01b03166111ec57600080fd5b33600090815260026020818152604092839020808301805485516001821615610100026000190190911694909404601f8101849004840285018401909552848452909390918301828280156112825780601f1061125757610100808354040283529160200191611282565b820191906000526020600020905b81548152906001019060200180831161126557829003601f168201915b5050505050935050505090565b33600081815260208190526040902060018101546001600160a01b03166112b557600080fd5b33600090815260208190526040812060028101805491929160001981019081106112db57fe5b60009182526020808320909101546001600160a01b0316808352600280835260409384902080820180548651601f60001960018416156101000201909216949094049081018690048602840186019096528583529295509360609391929183018282801561138a5780601f1061135f5761010080835404028352916020019161138a565b820191906000526020600020905b81548152906001019060200180831161136d57829003601f168201915b5050505050905080876040516020018083805190602001908083835b602083106113c55780518252601f1990920191602091820191016113a6565b6001836020036101000a03801982511681845116808217855250505050505090500180600b60fa1b81525060010182805190602001908083835b6020831061141e5780518252601f1990920191602091820191016113ff565b6001836020036101000a0380198251168184511680821785525050505050509050019250505060405160208183030381529060405282600201908051906020019061146a92919061164b565b5050505050505050565b6001600160a01b0380821660009081526002602052604081206001810154606093849286929091610100909104166114ab57600080fd5b33600081815260208190526040902060018101546001600160a01b03166114d157600080fd5b6001600160a01b0388166000908152600260209081526040808320600383528184203385529092529091205461150657600080fd5b6001818101548254604080516020600261010096851615870260001901909416849004601f810182900482028301820190935282825286959094046001600160a01b03169392850192909185918301828280156115a45780601f10611579576101008083540402835291602001916115a4565b820191906000526020600020905b81548152906001019060200180831161158757829003601f168201915b5050845460408051602060026001851615610100026000190190941693909304601f8101849004840282018401909252818152959850869450925084019050828280156116325780601f1061160757610100808354040283529160200191611632565b820191906000526020600020905b81548152906001019060200180831161161557829003601f168201915b5050505050905097509750975050505050509193909250565b828054600181600116156101000203166002900490600052602060002090601f016020900481019282601f1061168c57805160ff19168380011785556116b9565b828001600101855582156116b9579182015b828111156116b957825182559160200191906001019061169e565b506116c5929150611753565b5090565b82805482825590600052602060002090810192821561171e579160200282015b8281111561171e57825182546001600160a01b0319166001600160a01b039091161782556020909201916001909101906116e9565b506116c5929150611770565b81548183558181111561174e5760008381526020902061174e918101908301611753565b505050565b61176d91905b808211156116c55760008155600101611759565b90565b61176d91905b808211156116c55780546001600160a01b031916815560010161177656fea265627a7a7231582013c400dcfd4a601502fe4f0ae1e098752af7171049d8690569302d86621b1f1364736f6c63430005100032",
  "source": "// SPDX-License-Identifier: MIT\r\npragma solidity >=0.4.22 <0.9.0;\r\n\r\nimport \"./Doctor.sol\";\r\nimport \"./Patient.sol\";\r\n\r\ncontract HealthCare is Doctor, Patient {\r\n    address private owner;\r\n    \r\n    constructor () public { \r\n        owner = msg.sender;\r\n    }\r\n    \r\n    modifier onlyOwner() {\r\n        require(msg.sender == owner);\r\n        _;\r\n    }\r\n    \r\n    //check if the owner of the contract (session) is a doctor or a patient\r\n    function checkProfile(address _user) public view onlyOwner returns(string memory, string memory){\r\n        patient storage p = patients[_user];\r\n        doctor storage d = doctors[_user];\r\n          \r\n        if(p.id > address(0x0))\r\n            return (p.name, 'patient');\r\n        else if(d.id > address(0x0))\r\n            return (d.name, 'doctor');\r\n        else\r\n            return ('', '');\r\n    }\r\n   //patient calls this\r\n    function grantAccessToDoctor() public checkPatient(msg.sender) {\r\n        patient storage p = patients[msg.sender];\r\n        address doctor_id = p.request_list[p.request_list.length-1];\r\n        doctor storage d = doctors[doctor_id];\r\n        require(patientToDoctor[msg.sender][doctor_id] < 1);// this means doctor already been access\r\n      \r\n        uint pos = p.doctor_list.push(doctor_id);// new length of array\r\n\r\n        patientToDoctor[msg.sender][doctor_id] = pos;\r\n        d.patient_list.push(msg.sender);\r\n        delete p.request_list[p.request_list.length-1];\r\n        p.request_list.length--;\r\n    }\r\n  \r\n    function addFile(string memory _prescription) public checkDoctor(msg.sender) {\r\n        doctor storage d = doctors[msg.sender];\r\n        address pid = d.patient_list[d.patient_list.length-1];\r\n        patient storage p = patients[pid];\r\n        string memory temp;\r\n        \r\n        temp = p.history;\r\n        p.history =string(abi.encodePacked(temp, \",\", _prescription));\r\n    }\r\n    \r\n    function getPatientInfoForDoctor(address pat) public view checkPatient(pat) checkDoctor(msg.sender) returns(string memory, address, string memory){\r\n        patient storage p = patients[pat];\r\n        require(patientToDoctor[pat][msg.sender] > 0);\r\n        return (p.name, p.id, p.history);\r\n    }\r\n    \r\n    function getFileInfoPatient() public view \r\n    onlyOwner checkPatient(msg.sender) returns(string memory) {\r\n        patient storage p = patients[msg.sender];\r\n        return (p.history);\r\n    }\r\n    //doc calls this patient list la doc id will be stored\r\n    function requestAccess(address pat)public checkPatient(pat) checkDoctor(msg.sender){\r\n        patient storage p = patients[pat];\r\n        p.request_list.push(msg.sender);\r\n    }\r\n  \r\n}",
  "sourcePath": "C:\\Users\\Heidi\\Desktop\\Ethereum_HealthCare_Final\\contracts\\HealthCare.sol",
  "compiler": {
    "name": "solc",
    "version": "0.5.16+commit.9c3226ce.Emscripten.clang"
  },
  "schemaVersion": "3.4.7",
  "updatedAt": "2022-06-10T20:20:59.242Z",
  "networkType": "ethereum",
  "devdoc": {
    "methods": {}
  },
  "userdoc": {
    "methods": {}
  }
}