{
  "contractName": "Manager",
  "abi": [
    {
      "constant": true,
      "inputs": [
        {
          "internalType": "uint256",
          "name": "",
          "type": "uint256"
        }
      ],
      "name": "assets",
      "outputs": [
        {
          "internalType": "uint256",
          "name": "id",
          "type": "uint256"
        },
        {
          "internalType": "string",
          "name": "name",
          "type": "string"
        }
      ],
      "payable": false,
      "stateMutability": "view",
      "type": "function"
    },
    {
      "constant": true,
      "inputs": [],
      "name": "nextId",
      "outputs": [
        {
          "internalType": "uint256",
          "name": "",
          "type": "uint256"
        }
      ],
      "payable": false,
      "stateMutability": "view",
      "type": "function"
    },
    {
      "constant": false,
      "inputs": [
        {
          "internalType": "string",
          "name": "name",
          "type": "string"
        }
      ],
      "name": "create",
      "outputs": [],
      "payable": false,
      "stateMutability": "nonpayable",
      "type": "function"
    },
    {
      "constant": true,
      "inputs": [
        {
          "internalType": "uint256",
          "name": "id",
          "type": "uint256"
        }
      ],
      "name": "read",
      "outputs": [
        {
          "internalType": "uint256",
          "name": "",
          "type": "uint256"
        },
        {
          "internalType": "string",
          "name": "",
          "type": "string"
        }
      ],
      "payable": false,
      "stateMutability": "view",
      "type": "function"
    }
  ],
  "bytecode": "0x60806040526001805534801561001457600080fd5b50610579806100246000396000f3fe608060405234801561001057600080fd5b506004361061004c5760003560e01c806361b8ce8c14610051578063b6a46b3b1461006b578063cf35bdd014610113578063ed2e5a97146101af575b600080fd5b6100596101cc565b60408051918252519081900360200190f35b6101116004803603602081101561008157600080fd5b81019060208101813564010000000081111561009c57600080fd5b8201836020820111156100ae57600080fd5b803590602001918460018302840111640100000000831117156100d057600080fd5b91908080601f0160208091040260200160405190810160405280939291908181526020018383808284376000920191909152509295506101d2945050505050565b005b6101306004803603602081101561012957600080fd5b503561026a565b6040518083815260200180602001828103825283818151815260200191508051906020019080838360005b8381101561017357818101518382015260200161015b565b50505050905090810190601f1680156101a05780820380516001836020036101000a031916815260200191505b50935050505060405180910390f35b610130600480360360208110156101c557600080fd5b503561031f565b60015481565b60408051808201909152600180548252602080830184815260008054938401808255908052845160029094027f290decd9548b62a8d60345a988386fc84ba6bc95484008f6362f93160ef3e5638101948555915180519195949361025b937f290decd9548b62a8d60345a988386fc84ba6bc95484008f6362f93160ef3e56401929101906104a9565b50506001805481019055505050565b6000818154811061027757fe5b60009182526020918290206002918202018054600180830180546040805193821615610100026000190190911695909504601f81018790048702830187019095528482529195509193919290918301828280156103155780601f106102ea57610100808354040283529160200191610315565b820191906000526020600020905b8154815290600101906020018083116102f857829003601f168201915b5050505050905082565b60006060600061032e84610413565b90506000818154811061033d57fe5b9060005260206000209060020201600001546000828154811061035c57fe5b9060005260206000209060020201600101808054600181600116156101000203166002900480601f0160208091040260200160405190810160405280929190818152602001828054600181600116156101000203166002900480156104025780601f106103d757610100808354040283529160200191610402565b820191906000526020600020905b8154815290600101906020018083116103e557829003601f168201915b505050505090509250925050915091565b6000805b60005481101561045657826000828154811061042f57fe5b906000526020600020906002020160000154141561044e5790506104a4565b600101610417565b506040805162461bcd60e51b815260206004820152601c60248201527f6d65646963616c417373657420646f6573206e6f742065786973742100000000604482015290519081900360640190fd5b919050565b828054600181600116156101000203166002900490600052602060002090601f016020900481019282601f106104ea57805160ff1916838001178555610517565b82800160010185558215610517579182015b828111156105175782518255916020019190600101906104fc565b50610523929150610527565b5090565b61054191905b80821115610523576000815560010161052d565b9056fea265627a7a72315820b21ea8c8b7200f617ccbcd5cff859d3e266333da78655daf164face103fd4f6c64736f6c63430005100032",
  "source": "// SPDX-License-Identifier: MIT\r\npragma solidity >=0.4.22 <0.9.0;\r\n\r\ncontract Manager {\r\n    struct medicalAsset {\r\n        uint id;\r\n        string name;\r\n    }\r\n    medicalAsset[] public assets;\r\n    uint public nextId = 1;\r\n\r\n    function create(string memory name) public {\r\n        assets.push(medicalAsset(nextId, name));\r\n        nextId++;\r\n    }\r\n\r\n    function read(uint id) view public returns(uint, string memory) {\r\n        uint i = find(id);\r\n        return(assets[i].id,assets[i].name);\r\n    }\r\n\r\n    function find(uint id) view internal returns(uint) {\r\n        for(uint i = 0; i < assets.length; i++) {\r\n            if(assets[i].id == id) {\r\n                return i;\r\n            }\r\n        }\r\n        revert('medicalAsset does not exist!');\r\n    }\r\n}",
  "sourcePath": "C:\\Users\\Heidi\\Desktop\\Ethereum_HealthCare_Final\\contracts\\Manager.sol",
  "compiler": {
    "name": "solc",
    "version": "0.5.16+commit.9c3226ce.Emscripten.clang"
  },
  "schemaVersion": "3.4.7",
  "updatedAt": "2022-06-10T20:20:59.255Z",
  "networkType": "ethereum",
  "devdoc": {
    "methods": {}
  },
  "userdoc": {
    "methods": {}
  }
}