{
  "contractName": "Patient",
  "abi": [
    {
      "constant": true,
      "inputs": [],
      "name": "getPatientInfo",
      "outputs": [
        {
          "internalType": "string",
          "name": "",
          "type": "string"
        },
        {
          "internalType": "uint8",
          "name": "",
          "type": "uint8"
        },
        {
          "internalType": "string",
          "name": "",
          "type": "string"
        },
        {
          "internalType": "address[]",
          "name": "",
          "type": "address[]"
        },
        {
          "internalType": "address[]",
          "name": "",
          "type": "address[]"
        }
      ],
      "payable": false,
      "stateMutability": "view",
      "type": "function"
    },
    {
      "constant": false,
      "inputs": [
        {
          "internalType": "string",
          "name": "_name",
          "type": "string"
        },
        {
          "internalType": "uint8",
          "name": "_age",
          "type": "uint8"
        }
      ],
      "name": "signupPatient",
      "outputs": [],
      "payable": false,
      "stateMutability": "nonpayable",
      "type": "function"
    }
  ],
  "bytecode": "0x608060405234801561001057600080fd5b50610751806100206000396000f3fe608060405234801561001057600080fd5b50600436106100365760003560e01c8063326df6641461003b5780637120203a146101b4575b600080fd5b610043610261565b60405180806020018660ff1660ff16815260200180602001806020018060200185810385528a818151815260200191508051906020019080838360005b83811015610098578181015183820152602001610080565b50505050905090810190601f1680156100c55780820380516001836020036101000a031916815260200191505b5085810384528851815288516020918201918a019080838360005b838110156100f85781810151838201526020016100e0565b50505050905090810190601f1680156101255780820380516001836020036101000a031916815260200191505b508581038352875181528751602091820191808a01910280838360005b8381101561015a578181015183820152602001610142565b50505050905001858103825286818151815260200191508051906020019060200280838360005b83811015610199578181015183820152602001610181565b50505050905001995050505050505050505060405180910390f35b61025f600480360360408110156101ca57600080fd5b8101906020810181356401000000008111156101e557600080fd5b8201836020820111156101f757600080fd5b8035906020019184600183028401116401000000008311171561021957600080fd5b91908080601f0160208091040260200160405190810160405280939291908181526020018383808284376000920191909152509295505050903560ff1691506104a89050565b005b3360008181526020819052604081206001810154606093849283928392919061010090046001600160a01b031661029757600080fd5b3360009081526020818152604091829020600180820154825485516002610100948316159490940260001901909116839004601f81018690048602820186019096528581529294859460ff90921693928501926003860192600487019287918301828280156103475780601f1061031c57610100808354040283529160200191610347565b820191906000526020600020905b81548152906001019060200180831161032a57829003601f168201915b5050865460408051602060026001851615610100026000190190941693909304601f8101849004840282018401909252818152959a50889450925084019050828280156103d55780601f106103aa576101008083540402835291602001916103d5565b820191906000526020600020905b8154815290600101906020018083116103b857829003601f168201915b505050505092508180548060200260200160405190810160405280929190818152602001828054801561043157602002820191906000526020600020905b81546001600160a01b03168152600190910190602001808311610413575b505050505091508080548060200260200160405190810160405280929190818152602001828054801561048d57602002820191906000526020600020905b81546001600160a01b0316815260019091019060200180831161046f575b50505050509050975097509750975097505050509091929394565b336000908152602081905260409020600181015461010090046001600160a01b0316156104d457600080fd5b60008260ff161180156104ea575060648260ff16105b6104f357600080fd5b60408051602080820183526000808352835160c08101855287815260ff87168184015233818601819052606082018590528551838152808501875260808301528551838152808501875260a08301528252818352939020835180519394939192610562928492909101906105fc565b5060208281015160018301805460408601516001600160a01b031661010002610100600160a81b031960ff90941660ff199092169190911792909216919091179055606083015180516105bb92600285019201906105fc565b50608082015180516105d791600384019160209091019061067a565b5060a082015180516105f391600484019160209091019061067a565b50505050505050565b828054600181600116156101000203166002900490600052602060002090601f016020900481019282601f1061063d57805160ff191683800117855561066a565b8280016001018555821561066a579182015b8281111561066a57825182559160200191906001019061064f565b506106769291506106db565b5090565b8280548282559060005260206000209081019282156106cf579160200282015b828111156106cf57825182546001600160a01b0319166001600160a01b0390911617825560209092019160019091019061069a565b506106769291506106f8565b6106f591905b8082111561067657600081556001016106e1565b90565b6106f591905b808211156106765780546001600160a01b03191681556001016106fe56fea265627a7a723158207030856d56ee487a1a9e87640f78586099633033ea0c264b999ffbfe7a69d2cb64736f6c63430005100032",
  "source": "// SPDX-License-Identifier: MIT\r\npragma solidity >=0.4.22 <0.9.0;\r\n\r\ncontract Patient {\r\n    mapping (address => patient) internal patients;\r\n    mapping (address => mapping (address => uint)) internal patientToDoctor;\r\n    \r\n    struct patient {\r\n        string name;\r\n        uint8 age;\r\n        address id;\r\n        //hashes of file that belong to this user for display purpose\r\n        string history;\r\n        address[] doctor_list;\r\n        address[] request_list;\r\n    }\r\n    \r\n    modifier checkPatient(address id) {\r\n        patient storage p = patients[id];\r\n        //check if patient exist\r\n        require(p.id > address(0x0));\r\n        _;\r\n    }\r\n    \r\n    function getPatientInfo() public view checkPatient(msg.sender) returns(string memory, uint8, string memory, address[] memory, address[] memory) {\r\n        patient storage p = patients[msg.sender];\r\n        return (p.name, p.age, p.history, p.doctor_list, p.request_list);\r\n    }\r\n    \r\n    function signupPatient(string memory _name, uint8 _age) public {\r\n        patient storage p = patients[msg.sender];\r\n        require(!(p.id > address(0x0)));\r\n        require((_age > 0) && (_age < 100));\r\n        string memory initial = \"\";\r\n        //add new patient to mapping\r\n        patients[msg.sender] = patient({name:_name, age:_age, id:msg.sender, history:initial, doctor_list:new address[](0), request_list:new address[](0)});\r\n    }\r\n}",
  "sourcePath": "C:\\Users\\Heidi\\Desktop\\Ethereum_HealthCare_Final\\contracts\\Patient.sol",
  "compiler": {
    "name": "solc",
    "version": "0.5.16+commit.9c3226ce.Emscripten.clang"
  },
  "schemaVersion": "3.4.7",
  "updatedAt": "2022-06-10T20:20:59.264Z",
  "networkType": "ethereum",
  "devdoc": {
    "methods": {}
  },
  "userdoc": {
    "methods": {}
  }
}